:020000040800F2
:1000000088060020450200084D0200084F02000843
:1000100051020008530200085502000800000000C9
:10002000000000000000000000000000570200086F
:1000300059020008000000005B0200085D02000891
:100040005F0200085F0200085F0200085F0200080C
:100050005F0200085F0200085F0200085F020008FC
:100060005F0200085F0200085F0200085F020008EC
:100070005F0200085F0200085F0200085F020008DC
:100080005F0200085F0200085F0200085F020008CC
:100090005F0200085F0200085F0200085F020008BC
:1000A0005F0200085F0200085F0200085F020008AC
:1000B0005F0200085F0200085F0200085F0200089C
:1000C0005F0200085F0200085F0200085F0200088C
:1000D0005F020008FD3000085F0200085F020008B0
:1000E0005F0200085F0200085F02000800F002F8EB
:1000F00000F098F814A696E8000CB244B344DA4530
:1001000001D100F08FF8BAE80F000FA696E8300092
:10011000A5EB040504EB0607AAEB0704A7F101070A
:100120004FEA15154FEA3414A4F10104AC4201D38F
:1001300000F078F813F0010F18BFFB1A43F0010329
:1001400000F001F8DBE718472043000030430000CF
:10015000704700000023002400250026103A28BF25
:1001600078C1FBD8520728BF30C148BF0B60704729
:100170006E2900F05D81702900F09F82662904F0ED
:100180004F80652904F04C80672904F0498061297B
:1001900004F0488003681B0A28BF41F080016929E8
:1001A00000F00A81642900F00781752900F00481BC
:1001B0006F2900F02D82782900F06B82E92900F088
:1001C000C781E42900F0C481F52900F0C181EF293D
:1001D00000F02A82F82900F06A820368DB0928BF50
:1001E00041F08001632901F0D382732901F0D882A4
:1001F000E32901F0E382F32901F0E882002070474F
:100200001FB501F0ABFF04000020002103F0A8FEA1
:10021000401C60600020002103F08CFEE0601FBDE8
:1002200010B510BD01F06DFF1146FFF7E9FF03F0B7
:10023000D3F802F061F803B4FFF7F2FF03BC02F059
:10024000DFFA00000948804709480047FEE7FEE75B
:10025000FEE7FEE7FEE7FEE7FEE7FEE7FEE7FEE776
:1002600004480549054A064B70470000A92F0008BD
:10027000ED00000888000020880600208802002089
:10028000880200200FB41CB5084B06AA7B446946BF
:100290000090059800F0E5F804460020694600F05B
:1002A000F3F820461CBC5DF814FB0000F9010000C7
:1002B0000FB400B58DB010A9099000910B904FF0CC
:1002C000FF300A9000200C900648784406900648BB
:1002D00078446A4607900F9909A800F085FC0DB094
:1002E0005DF814FB3B09000053090000704770479C
:1002F000704770B5044685690068C10601D530268F
:1003000000E02026C00707D070BDD4E901213046A7
:100310009047206A401C20626D1EF6D570BD70B5F6
:10032000044685690078C00707D170BDD4E9012172
:1003300020209047206A401C20626D1EF6D570BDBB
:1003400009684A0501D540B27047C905FCD500B21D
:10035000704709684A0501D5C0B27047C905FCD588
:1003600080B2704770B50C460546012A05D0287842
:10037000800600D5EA69002302E0012305E05B1C4A
:10038000934202D2E05C0028F9D1A869E618C01AAD
:10039000A861286A184428622846FFF7AAFF04E0EB
:1003A000D5E9012114F8010B9047B442F8D328464F
:1003B000FFF7B5FF70BD00002DE9F04106460024AF
:1003C00010687529314616A510D0FFF7B9FF00282F
:1003D00002DA404213A507E031688A0701D512A569
:1003E00002E0490704D511A5012401E0FFF7B1FFA0
:1003F00000210A2206F1240709E0B0FBF2FCB0FB61
:10040000F2F302FB1C00303078541846491C0028D7
:10041000F3D123462A463046BDE8F04100F0C8BD7E
:10042000000000002D0000002B0000002000000054
:1004300011680268006A530501D508700AE0D30507
:1004400001D5088006E0130603D5C217C1E90002F2
:1004500000E008600120704701694A1C02610878C9
:10046000704700B58FB0CDE90131002105910549F4
:100470007944CDE903101146684600F029F90FB020
:1004800000BD0000E5FFFFFF0A6802F8010B0A60EB
:10049000704700002DE9FF5F15468A460446DFF8E5
:1004A000AC80F8440027D8E900103E46CDE90010A2
:1004B00010E03AF816106A4602A801F0FEFD411C51
:1004C00007D02178890603D5E269391891420DD801
:1004D0000744761C2078800602D5E069B84205DD25
:1004E000AE42E6DB3AF816000028E2D1A069C01B54
:1004F000A0612046FFF7FDFED8E90010CDE900100D
:10050000002017E03AF818106A4602A801F0D5FD5D
:10051000B0F1FF3F81460BD000250DF1080B05E03F
:10052000D4E901211BF8050090476D1C4D45F7D318
:1005300008F10100B0428046E4DB206A38442062C2
:100540002046FFF7ECFEBDE8FF9F00007E3E000066
:100550002DE9F0418046D21D22F007020025D2E9A4
:100560000002F52915A614D0011E72F1000106DA69
:100570000023D0EB030063EB020211A608E0D8F8D9
:1005800000108B0701D50FA602E0490701D50EA682
:1005900001251146002408F1240704E000F0BAFC0C
:1005A00030323A55641C50EA0102F7D12B463246EC
:1005B00021464046BDE8F04100F0FABC00000000D2
:1005C0002D0000002B0000002000000030B40021AE
:1005D00000F1240408E002F00705D208303542EAB1
:1005E0004372DB086554491C52EA0305F3D10468E1
:1005F000002310A2250708D504F020040C4304D0E2
:10060000C46901230CA2641EC46130BC00F0D0BCDC
:1006100010B5044621461068FFF79BFE02462046AF
:10062000BDE810400023D1E7D21D22F00701D1E937
:100630000023CBE70000000030000000F0B40D46BE
:100640000188090502D5214C7C4402E01F4C7C4402
:100650000E34002100F1240608E002F00F07120911
:10066000E75D42EA03721B097754491C52EA03070B
:10067000F3D102780023120704D5702D06D009B1FA
:10068000022311342246F0BC00F092BC0123103446
:10069000F8E770B504460D4621461068FFF759FE8D
:1006A000024629462046BDE870400023C6E7D21D19
:1006B00022F00703D3E90023C0E70368126843F080
:1006C000200303600823C3610023B7E7E03C000078
:1006D0002DE9F05F894604464FF0000ADFF874B157
:1006E000FB44C0F820A02046E1688847002874D069
:1006F000252806D0D4E901219047206A401C2062B9
:10070000F1E700265F462046E16888472028054635
:1007100007DB312D05D2781910F8200C08B10643FB
:10072000F1E7B00701D526F00406C4F81CA00027A5
:10073000C4F818A02A2D09D0284603F08EFB38B340
:1007400004EB8708303DC8F8185019E059F8041B2D
:10075000204604EB87029161E1688847012F054636
:1007600018D1E069002820DA26F020061DE0D8F82C
:10077000180000EB800005EB40003038C8F8180086
:100780002046E1688847054603F067FB0028EED164
:10079000012F0AD02E2D08D12046E16888477F1C02
:1007A0000546022F46F02006C4DBA069002803DAC4
:1007B000404246F00106A061F00701D026F0100685
:1007C0006C2D0BD0682D09D04C2D39D06A2D35D029
:1007D000742D35D07A2D33D016E038E0E1682F46FD
:1007E00020468847B842054609D16C2F26D04FF4E1
:1007F0008060E168064320468847054604E06C2F88
:100800001AD04FF4807006430DB3A5F141001928AA
:1008100002D8203546F400664A462946204626601E
:100820004E46FFF7A5FC80B101280BD0F61D26F03F
:10083000070000F1080956E74020E4E78020D8E7E8
:100840000020D6E706F104094DE7284652E7206A62
:10085000BDE8F09F703C00002DE9FF4F1C4691461B
:100860004FF0FF3581B000218A468846D4E9016700
:10087000A16902986D1C8847216A83468847002831
:10088000F6D1BBF1FF3F0CD0002F26F4C0661ADD75
:10089000700615D5BBF12B0F0AD0BBF12D0F0FD170
:1008A00004E04FF0FF3005B0BDE8F08F46F48066FD
:1008B000A16902986D1C88477F1E8346002F02DDC8
:1008C000BBF1300F03D0B9F1000F2AD025E0A169A8
:1008D0006D1C02987F1E46F400768847002F8346E1
:1008E00005DDBBF1780F06D0BBF1580F03D0B9F18D
:1008F000000F10D011E0B9F1000F02D0B9F1100FC4
:100900000BD1A1696D1C02987F1E26F400768847E2
:100910008346102000E0082081464FEAE9700090ED
:1009200017E00A20F8E74346AAFB0928DDF800C0D3
:100930007F1E03FB098046F4007605F101050AFBE2
:100940000C0112EB0B0A029841EBEB78A169884786
:100950008346002F06DD4946584600F03BFF5FEA1C
:10096000000BE0D5E16902988847B00502D46FF02A
:10097000010098E7F00718D1700610D551467005B0
:1009800005D50023D1EB030163EB080200E04246EA
:100990002068031D23600068C0E9001205E020689C
:1009A000011D21600068C0E900A828467BE72DE909
:1009B000FF5F1D464FF0FF3B91464FF000085F463A
:1009C000D5E90146A96901987F1C8847296A8246B2
:1009D00088470028F6D1BAF1FF3F0CD0002E24F44E
:1009E000C06419DD600614D5BAF12B0F09D0BAF135
:1009F0002D0F0ED103E0584604B0BDE8F09F44F43B
:100A00008064A96901987F1C8847761E8246002E63
:100A100002DDBAF1300F03D0B9F1000F26D032E079
:100A2000A969761E01987F1C44F400748847002E43
:100A3000824605DDBAF1780F06D0BAF1580F03D01F
:100A4000B9F1000F10D01EE0B9F1000F02D0B9F1DA
:100A5000100F18D1A969761E01987F1C24F4007428
:100A600088478246102002E0082000E00A208146E4
:100A700009E0A96908FB0908761E01987F1C44F467
:100A8000007488478246002E05DD4946504600F036
:100A9000A1FE0028EDDAE96901988847A00502D493
:100AA0006FF00100A8E7E00725D1600613D56005C7
:100AB00002D5C8F1000000E0404629680A1D2A60FE
:100AC0000968220501D5087015E0220701D50880C4
:100AD00011E008600FE02868011D29600068210509
:100AE00002D580F8008006E0210702D5A0F800803A
:100AF00001E0C0F8008038467EE72DE9FF5F4FF047
:100B000000089946144646469169D2E901A7DDF8E6
:100B100038B001988847054659EA0B0005D009E02E
:100B2000A1690198761C88470546216A28468847AE
:100B30000028F5D1681C03D05FEACA7005D015E023
:100B40004FF0FF3004B0BDE8F09F2068011D216028
:100B5000D0F800800AE05FEACA7001D108F8015BB2
:100B6000A169761C01987F1E88470546002F1ADD73
:100B7000681C18D0B9F1000F0DD0E81705EBD06054
:100B8000421120F01F0059F822102A1A012090402B
:100B90000142E0D107E0BBF1000FDCD12846216A19
:100BA00088470028D7D0E16901988847BBF1000F3A
:100BB00007D1002E05DD5FEACA7002D1002188F856
:100BC0000010A068B84203DDBBF1000F03D017B1DD
:100BD0006FF00100B6E73046B4E700000268114448
:100BE0001378016018467047D16005497944516116
:100BF00004497944116200211161114600F0F8BDE9
:100C0000EDFFFFFFA9030000426842B1016811F83F
:100C1000013B23B1521EC0E9001218467047012162
:100C2000C160881E704742685AB1C368016843B901
:100C300083688B4205D0491E521CC0E90012002077
:100C400070474FF0FF3070472DE9FF4F4FF000081D
:100C50009A461446C146464683B0D2E901B7CDF85C
:100C60000080CDF804809169049888471099054662
:100C70005AEA010005D009E0A1690498761C88476A
:100C80000546216A284688470028F5D1681C03D00C
:100C90005FEACB7005D02AE04FF0FF3007B0BDE827
:100CA000F08F2068011D2160D0F800801FE002A8AD
:100CB0006A46E9B201F0E1F9411C07D0801C09D075
:100CC0004FF000095FEACB7007D00AE0E1690498B1
:100CD00088473EE04FF0010904E0BDF8081028F80D
:100CE000021B7F1EA1690498761C88470546002FC9
:100CF0001ADD681C18D0BAF1000F0DD0E81705EB0B
:100D0000D060421120F01F005AF822102A1A012048
:100D100090400142CBD107E010980028C7D1284667
:100D2000216A88470028C2D0E16904988847B9F150
:100D3000000F0ED1109830B9002E04DD5FEACB70A1
:100D400001D1A8F80000A068B84202DD109818B1DF
:100D500017B16FF00100A1E730469FE72DE9FF4F83
:100D60004FF000089B461446454683B0D2E90196F1
:100D7000CDF80080CDF804809169DDF848A0049892
:100D8000884707465BEA0A0005D009E0A169049894
:100D90006D1C88470746216A384688470028F5D1E8
:100DA000781C03D05FEAC97005D01BE04FF0FF301C
:100DB00007B0BDE8F08F2068011D2160D0F80080E9
:100DC00010E05FEAC97007D16A464046B9B201F047
:100DD00074F9411C31D08044A1696D1C0498761EC1
:100DE00088470746002E14DD781C12D0BBF10000A6
:100DF00007D03B46DDE9101201F030F90028E0D1C0
:100E000007E0BAF1000FDCD13846216A8847002894
:100E1000D7D0E16904988847BAF1000F06D1002DB8
:100E200004DD5FEAC97001D188F80000A068B04213
:100E300003DDBAF1000F03D016B16FF00100B7E780
:100E40002846B5E72DE9FF5F9B46144600273D463F
:100E50009169D2E90196DDF840A001988847804663
:100E60005BEA0A0005D009E0A16901986D1C88477A
:100E70008046216A404688470028F5D1B8F1FF3FF7
:100E800003D05FEAC97005D014E04FF0FF3004B022
:100E9000BDE8F09F2068011D216007680AE05FEA55
:100EA000C97001D127F8028BA1696D1C0198761ECB
:100EB00088478046002E15DDB8F1FF3F12D0BBF108
:100EC000000007D04346DDE90E1201F0C7F8002804
:100ED000E5D107E0BAF1000FE1D14046216A884729
:100EE0000028DCD0E16901988847BAF1000F05D1EC
:100EF000002D03DD5FEAC97000D13880A068B042E0
:100F000003DDBAF1000F03D016B16FF00100BEE7A8
:100F10002846BCE730B5B0F10A0271F100034FEA90
:100F2000900E4EEA817EB0EB0E0061EB91014FEA2C
:100F3000101E4EEA017E10EB0E0041EB11114FEA3C
:100F4000102E4EEA016E10EB0E0041EB11214FEA1C
:100F5000104E4EEA014E10EB0E0041EB11414018CD
:100F600041F100014FEAD00040EA41704FEAD1015F
:100F70004FEA810444EA907410EB800544EB0104CD
:100F80006D1944EB0404521BA3414FF0000348BF0A
:100F90000A3200D530BD401C41F1000130BD10B512
:100FA000044601F0D3F80068005D00F0010010BDB8
:100FB0002DE9F0470D4699469246044600F1240873
:100FC0000168880604D5E06921F01001216000E085
:100FD0000120A84201DD471B00E00027A1697A1922
:100FE00002EB0900081AA0612078C00602D420464E
:100FF000FFF77FF9002608E0D4E901211AF806007E
:101000009047206A401C761C20624E45F4DB207815
:10101000C0060AD52046FFF76CF906E0D4E90121A5
:1010200030209047206A401C2062381EA7F101073B
:10103000F4DC07E0D4E9012118F805009047206AA4
:10104000401C2062281EA5F10105F3DC2046FFF7B5
:1010500066F92078000602D50220BDE8F08701205D
:10106000FBE72DE9FF4F0C461E464FF0FF378BB0D4
:10107000D2E90001DDF860800A908A46C1F30A5582
:1010800005B93D46002108464FF00000BAF1000FB7
:1010900000F4400005DA00EB80004FF4400101EA63
:1010A00050004FEA9059B9F1010F00DDB9460A9896
:1010B00050EA4A000ED044F61050A5F2FF354543E1
:1010C0002F14B8F1000F1ED07542291E1EDDC9F184
:1010D00000021CE0B8F1010F4FF0000001D03021F8
:1010E00003E0F24305E02154401CB042FBDB3046F4
:1010F0000022002121540B99C1F80880C1E9002089
:101100000FB0BDE8F08FBD1B6D1CDEE74A4600DA6C
:10111000694206A801F07EF806AB93E8070003AB2E
:1011200083E8070050460A9902F0CDF98DE80700E0
:10113000A0F500501F3800900398002D0ADD42F200
:101140001F014A460844002303A90390684602F0A1
:1011500079FC09E0A0F500504A461F38002303A996
:101160000390684602F098FC8DE807000004000C2C
:1011700003D04FF0FF30410800E01046B8F1000FF7
:1011800003D00022009215461EE0751E05D4FFF71D
:10119000C1FE303262556D1EF9D5B34601220843B7
:1011A00002D000227F1C04E02078302801D10022E8
:1011B0007F1E002A099784D01DE0112D07DAFFF762
:1011C000A9FE303262556D1C50EA0102F5D1084388
:1011D00002D00098C8B10EE00021681E05E0235C33
:1011E000625C63542254401E491C8142F7DBAB46CB
:1011F000A81B401E0990002004F80B000B98099AC8
:10120000C0F80880C0E9002B7AE711264FF00008EB
:1012100057E72DE9F04F88460446D21D22F007011A
:1012200091B0D1E90001CDE90A0102F081FD024649
:101230000B98C00F01D02D2007E02068810701D551
:101240002B2002E0202101EAC000032A099001D0EE
:10125000072A05DB03464146204600F09BFF0BE1D1
:101260002078800601D5E06900E00620B8F1650F1E
:10127000814606D0B8F1660F18D0B8F1670F70D16B
:1012800031E00020B9F1110F009001DB112301E0E2
:1012900009F101030AAA01A90CA8FFF7E2FEDDE9A2
:1012A0000C70002609F10105834647E001204B46FA
:1012B00000904FF000470AAA01A90CA8FFF7D1FE41
:1012C000DDE90DB00C995D46002610B909F1010069
:1012D0000D18B9EB050003D4C0F1FF3609F1010583
:1012E000A5EB09002BE0B9F1010F01DA4FF001097C
:1012F0000020B9F1110F0090484601DD112300E0F4
:1013000003460AAA01A90CA8FFF7ABFEDDE90C70A1
:101310004D4600268346207800070AD4AB4500DA04
:101320005D4601A8012D04DD411911F8011C302989
:1013300007D04F4502DA17F1040F04DA0120824684
:101340000FE06D1EEEE7002F02DCED1B3E4403E0D4
:10135000781CA84200DD7D1CB81B00F1010A4FF08B
:1013600000472078000703D4AA4501DB4FF0FF3A7D
:101370000021B7F1004F0DF143088DF8431024D040
:1013800002202B23002F01DA7F422D230A21021E87
:10139000A0F1010000DC5FB197FBF1FC97FBF1F2DB
:1013A00001FB1C7C17460CF1300C08F801CDEEE770
:1013B000A8F1010003702188090501D5452100E04D
:1013C0006521A0F1010800F8011C09980FA9A1EB03
:1013D0000807FF1D00B10120411901EBEA70A16966
:1013E0003844081A401EA0612078C00602D4204666
:1013F000FEF77FFF099828B1D4E901219047206AC0
:10140000401C20622078C00622D52046FEF771FFDE
:101410001EE0002E04DBB34502DD01A8805D00E084
:101420003020D4E901219047206A401C2062761CBC
:10143000AAF101005FEA000A0AD100F08FFEC0683D
:101440000168405CD4E901219047206A401C206279
:10145000281EA5F10105DCDC07E0D4E9012118F81C
:10146000010B9047206A401C2062381EA7F101073B
:10147000F3DC2046FEF753FF032011B041E60000E5
:101480002DE9F04F04460D46D21D22F0070089B029
:10149000D0E900974846394602F04AFC0246F80F68
:1014A00001D02D2307E02068810701D52B2302E01E
:1014B000202101EAC0038DF820300BB1012000E0AB
:1014C0000020032A824601D0072A04DB2946204651
:1014D00000F060FE3FE12078800601D40D2500E099
:1014E000E569C7F30A560D2D49DA00214FEA175B6B
:1014F00008464FF00000002F00F4400007DA00EB30
:1015000080004FF4400100EBD07001EA60008115CB
:10151000012901DD4FF0FF3100224FEA850CBCF1BB
:10152000180F06D31346ACF118004FF08052C2409A
:1015300003E04FF4801323FA0CF30CF10C0CBCF114
:10154000200F04D3ACF1200C09FA0CF001E007FAEB
:101550000CF000294FF0004801DD18B90FE00ED162
:1015600040450CD319EB02095F4121B9404502D136
:101570009F4329EA0209BBEB175F00D0761C208845
:10158000000502D57B48784402E07A48784419384F
:1015900008AA302302F80A30037C0AF10101002E68
:1015A0000AF1020A53546A4602DC4FF0300101E0AE
:1015B0004FF031014FF001088DF8001002D0A6F273
:1015C000FF3603E059EA470100D06B4E002D02DCE4
:1015D0002178090704D54FF002082E218DF801105B
:1015E000C44600210BE0C7F303433F01C35C491C21
:1015F0006D1E02F80830052908F1010801DA002DF6
:10160000F1DC00210CE000EB1973491C1B786D1E06
:10161000082902F808304FEA091908F1010801DA2F
:10162000002DF0DC21688B0602D516E0A8F1010838
:10163000E04505DD02EB080313F8013C302BF5D043
:10164000B8F1000F09DD02EB080313F8013C2E2B63
:1016500003D1090701D4A8F10108002D05DD3E21C1
:1016600002F808106D1E08F10108407C002E02F8F7
:10167000080008F1010804DA2D20764202F808007B
:1016800002E02B2002F808000A214FF47A7086420B
:1016900008F101080BDB96FBF0F3303302F8083059
:1016A00096FBF0F308F1010800FB136601E0642EDD
:1016B0000CDB642096FBF0F3303302F8083096FB25
:1016C000F0F308F1010800FB136601E00A2E06DBC7
:1016D00096FBF1F0303002F8080008F1010896FBA3
:1016E000F1F001FB1060303002F80800A16908F148
:1016F000010808EB050202EB0A00081AA061207835
:10170000C00602D42046FEF7F4FD216A08AE01EBC4
:101710000A00206204E0D4E9012116F8010B904789
:10172000BAF1010AF7D22078C00602D52046FEF7AA
:10173000E0FD6E4609E016F8010B3E280FD0D4E913
:1017400001219047206A401C2062B8F10108F2D2C2
:101750002046FEF7E4FD09B00320BDE8F08F206AC3
:101760002844206203E0D4E90121302090476D1E17
:10177000EBD3F8E7EE2D000002FCFFFF10B5436944
:1017800013B1AFF3008001E0FEF7ECFD012010BDC6
:10179000127800F124010A7000224A700122EDE75C
:1017A00011684FF0FF32E9E710B5436913B1AFF3A9
:1017B000008001E0FEF76EFE012010BD128800F1EE
:1017C000240182840022C2840122EDE711684FF0D7
:1017D000FF32E9E73A2800D2303820F02002412ACF
:1017E00001D3A2F13700884201D34FF0FF30704798
:1017F0002DE9F34F4FF0000A0C4656468DB00120FC
:101800000C9001F10C000B9062690B98012190473C
:10181000051E2DD0252D2CD0216A8847C0B16269C4
:101820000B9801219047216A88470028F7D1626907
:10183000411E0B98904700E0761CA1690D988847DF
:10184000216A88470028F7D1E1690D988847DBE7CE
:10185000A1690D988847A842074601D1761CD3E7B5
:10186000E1690D9888477F1C02D1BAF1000F6FD053
:101870006BE162690B9800273D46394690472A285C
:1018800004D162690B98012190470125DFF8D082CD
:1018900062690B9801219047A0F130010A290AD210
:1018A0004745E5DC07EB870100EB4107303FDFD41C
:1018B00045F01005ECE7E90601D46FF000476C280D
:1018C0000AD04C2814D0682815D06A280DD0742866
:1018D0001CD07A281AD01DE062690B98012190472C
:1018E0006C2802D045F0040514E045F002050DE037
:1018F00045F020050AE062690B98012190476828AD
:1019000002D045F0080505E045F4006562690B98D2
:1019100001219047C4E9015765283DD019DC5828BA
:101920007AD00CDC452837D004DC252826D0412885
:101930009ED131E046282FD0472899D12CE05B2852
:1019400077D0612828D063287CD0642823D15AE03E
:10195000F6E06F2848D008DC66281DD067281BD029
:10196000692821D06E2816D127E0702845D0732829
:1019700068D0752847D078280DD14DE0A1690D9821
:101980008847252805463FF469AFE1690D988847E7
:101990006D1C3FF46AAFD8E00D9923466A466FF09C
:1019A000010002F0A1FCC5E045F0400023464FF0E5
:1019B00000026060A80736D43EE0E8077FF447AF36
:1019C0002068011D21600068290501D506701BE70C
:1019D000290701D5068017E7A90703D5F117C0E944
:1019E000006111E706600FE745F0400023464FF025
:1019F00008026060A80716D41EE040F60E0125EA32
:101A00000100606016E045F0400023464FF00A02F6
:101A10006060A80707D40FE045F040006060A807A9
:101A200008D5234610220D996FF00100FEF714FF30
:101A300080E007E0102223460D996FF00100FEF7C9
:101A4000B6FF77E04FF0000963284F46C8464B4683
:101A5000CB4602D05B2806D038E0E80601D401204E
:101A6000A060012732E06269D4F80CB00B98012124
:101A700090475E2807D14FF0010949466269D4F8C2
:101A80000CB00B989047216939B900210A4603AB85
:101A900043F82120491C0829FADBD8B3216949B34E
:101AA00008F1010862690B98012190475D28F4D183
:101AB000B9F1000F09D0002003A951F82020D2432A
:101AC00041F82020401C0828F7DB03AB20690028E0
:101AD00020794FEA40701ED05B462246CDF8008048
:101AE000CDE901970D9900286FF0010020DAFFF78A
:101AF000A9F91FE0C11703AA00EBD1614B1121F036
:101B00001F0102EB8302411A13680120884003433E
:101B10001360C7E719E00D99224600286FF0010015
:101B2000009702DAFFF790F804E0FEF7E6FF01E025
:101B3000FFF714F900280ADA401C06D10C9820B1EE
:101B40004FF0FF300FB0BDE8F08F5046FAE7E907DD
:101B500001D10AF1010A064400200C9054E600006D
:101B6000CCCCCC0C2DE9FF4F06468BB00878FF2873
:101B700006D0491C2D2805D000244FF0000908E0AC
:101B800000200CE00124F8E709EB8903491C00EB75
:101B900043090878FF28F7D114B1C9F10000814644
:101BA000107800252C46AA4629462D2801D02B283E
:101BB00004D1521C2D2813D0002082468B46107869
:101BC000FF280FD04FF0000C0A21521CA5FB017812
:101BD00004FB018105FB0C11C5194BEB0104EEE779
:101BE0000120EAE7002108464FF00000BAF1000F9B
:101BF00002D000EB80004008C0F38157012F01DDC7
:101C00004FF0FF370E9955EA040009EB01080BD09D
:101C10004FF0020918F5FA7F16DA4FEACA70002F62
:101C2000706008DD012007E04FEACA70C6E900B025
:101C30000FB0BDE8F08F0020306000F093FAC0F8DC
:101C400000901821084616E0B8F5FA7F18DD002F3D
:101C500002DAF748784401E0F6487844D0E9001009
:101C6000C6E9001040EACA70706000F07BFAC0F864
:101C70000090142108460FB0BDE8F04F02F0CDBA35
:101C8000002108464FF00000B8F10001099002DA87
:101C9000C7F1000200E03A4601DAC8F1000106A8E7
:101CA00000F0B8FA06AB93E8070003AB83E807003F
:101CB00044F23E005BEA04010090584604D144F22D
:101CC0001E012C465D460091210C0904014306D1FA
:101CD0000099240444EA15442D041039009104F0BD
:101CE0007F41014306D10099240244EA15642D0284
:101CF0000839009104F07041014306D10099240194
:101D000044EA15742D01091F009104F0404101437C
:101D100006D10099A40044EA9574AD00891E009193
:101D200004F00041084304D100986D196441401E3D
:101D300000904FF001033A466846B8F1000FCDE934
:101D4000014503A902DD01F0BCFE01E001F08FFEB8
:101D5000BAF1000F04460D4601D084F00044002182
:101D600008464FF00000099940F2FF77484010F014
:101D70000C0F07D124F00040284303D0C4F30A50CD
:101D8000B84212D100F0EEF9C0F80090C4F30A5046
:101D9000B8420AD1A8487844D0E90010C6E900103A
:101DA00004F000410843706042E7C6E900543FE791
:101DB0002DE9FF4F1F464FF0000A4FF0FF38454610
:101DC00091B0D7E90146CDF83CA000F0C7F9C06852
:101DD0000168405C1090B96912986D1C8847396A97
:101DE000814688470028F6D1B9F1FF3F0AD0002E7E
:101DF00024F4D06411DDB9F12B0F08D0B9F12D0F07
:101E00000BD102E0404615B013E744F48064B96991
:101E100012986D1C8847761E8146600504A901D57D
:101E20002D2000E02B20002E01F1010B0DF13008D8
:101E30008DF810003FDDB9F1690F08D0B9F1490FF5
:101E400005D0B9F16E0F02D0B9F14E0F1CD13B464F
:101E500001A8009580E85002DDE912126FF002003F
:101E600002F046FAC11CCED10EE0B96912986D1C81
:101E7000884781461398761E44F4007405600F98D5
:101E8000401C002E0F9016DDB9F1300FEDD0B9F1E6
:101E9000780F02D0B9F1580F0DD10F9801280AD14F
:101EA0003B46CDE90054DDE91212001F029602F014
:101EB0001DFAC11CA7D1109989453ED144F0800478
:101EC00006E01399681CAAF1010A44F40074086042
:101ED000B9696D1C1298761E884730288146F0D06B
:101EE0002BE01099894505D1200603D4761E44F0D5
:101EF000800418E0484601F0B0FF08B3761E0DF1EB
:101F000023029345A9F1300044F4007406D20BF883
:101F1000010B200607D5AAF1010003E0200602D438
:101F20000AF101008246A00502D51399681C0860D9
:101F3000B96912986D1C88478146002ED1DC53E0A8
:101F4000002E51DDB9F1650F02D0B9F1450F4BD12B
:101F5000A00549D5B9696D1C1298761E24F4407409
:101F60008847002E81460CDD2B2804D0B9F12D0FB7
:101F700007D144F48074B96912986D1C8847761EA5
:101F80008146E00501D52D2100E02B2108F8011B39
:101F9000CDF8008021E0761E0DF13901884544F42A
:101FA00000740CD2A9F1300010F0FF0088F8000096
:101FB00002D10099884509D908F1010806E0E00539
:101FC00001D51E4801E042F20F708246B9691298AD
:101FD0006D1C8847814613980560002E04DD484635
:101FE00001F03BFF0028D6D1F96912988847FF20FD
:101FF00053468BF8000088F8000000200A900B90F0
:1020000004AA0CA90AA8FFF7ADFDA00502D46FF041
:102010000100F8E614F0240F12D0E0071CD1386854
:10202000DDE90A12031D3B600068C0E9001213E0FD
:10203000282800001A280000DE260000F1D8FFFF43
:102040000AA9684601F098FEE00705D13868009AB1
:10205000011D3960006802602846D4E610B508E02A
:1020600030F8024B9C4204D10AB1002010BD01207F
:1020700010BD491EF4D2104610BDF8B516460C46E8
:10208000054600F063F8036893F80101012804D0C5
:10209000185D78B101202C80F8BDD3F803013246D9
:1020A000214603F20313C71868460023B847009976
:1020B0002980F8BD4FF0FF30F8BD2DE9F0411646FC
:1020C0000C46054600F042F8036893F80101012828
:1020D00007D0FF2C12D8185D80B101202C70BDE80C
:1020E000F081D3F807013246214603F20713C718DF
:1020F0002846BC46BDE8F041002360474FF0FF3062
:10210000EDE7754600F002F9AE4605006946534614
:1021100020F00700854618B020B5FEF7A1F8BDE80D
:1021200020404FF000064FF000074FF000084FF03E
:10213000000BAC46ACE8C009ACE8C009ACE8C0098B
:10214000ACE8C00921F007018D46704710B500F0DA
:1021500005F8001D10BD00BF091E000000487047B3
:10216000200000200048704700000020B2F120034A
:102170000AD5C2F1200301FA02F120FA03F341EA81
:10218000030100FA02F0704700FA03F14FF000007B
:10219000704700002DE9F0411F4604460326016800
:1021A000072A01F4006004DB08B116A505E016A5B6
:1021B00003E008B115A500E015A521F0100020608E
:1021C000A069C01EA0610FB1401EA0612046FEF7AD
:1021D00090F84FB1D4E9012138469047206A401C5D
:1021E0002062C01C206206E0206AFAE7D4E90121DF
:1021F00015F8010B9047761EF8D22046FEF78FF8AF
:10220000BDE8F0814E414E006E616E00494E4600C1
:10221000696E66002DE9F047814616468AB035485A
:1022200078440DC88DE80D0032487844801C03AC1A
:102230000DC884E80D0041F69B300844372190FB1F
:10224000F1F290FBF1F5A5F1800501FB12041B3CB6
:1022500002D56442012000E00020DFF898A080460B
:102260000027FA44AAF1BE0A0EE0E0070AD032467F
:10227000684607EB470101230AEB810101F00CFCE2
:102280008DE8070064107F1C002CEED1194F7F44AD
:10229000AE3F19E0E80715D007EB04100DF1180A5E
:1022A00090E80E008AE80E00C068F04201D198194B
:1022B00008903246012306A903A801F0EDFB03AB09
:1022C00083E807006D10641C002DE3D14FF001037B
:1022D00032466946B8F1000F03A802D001F0B2FB04
:1022E00001E001F0D9FBC9E90001C9F808200AB0F2
:1022F000BDE8F087E421000010B50446AFF300808C
:102300002046BDE81040FDF796BF0000004870472A
:102310000000002010B5FFF725FF006810BD10B5C4
:102320000446FFF71FFF046010BD00002DE9FF4FBA
:102330001F464FF03C0987B04FF00042DDE9141012
:1023400001F10108DDF858A002EA40500390002096
:1023500005908346054604460490B969461E0898D0
:102360008847AAF1010A0290BAF1000F3BDD0298FA
:102370002E2815D01021FFF72DFA00282EDB4FF064
:10238000010B0599014317D0B9F1000F0BDB4A4649
:10239000C117FFF7EBFE05430C43A9F1040905E063
:1023A000012004900BE008B145F0010501200590E3
:1023B000049820B9361D02E0049800B1361FB969AF
:1023C000089808F101088847BBF1000FAAF1010A3B
:1023D0000290C9D00999C1F80080C5E70298702819
:1023E00008D0502806D0F96908988847BBF1000F3B
:1023F00014D04FE0002002900120BBF1000F0490A8
:1024000009D0B969089808F101088847AAF10109BB
:10241000B9F1000F07DCF969089888476FF00100EF
:102420000BB0BDE8F08F2B2804D02D280CD14FF035
:10243000FF300490B969089808F101088847A9F1AC
:102440000109B9F1000FE6DD411CE4D00A21FFF7D4
:10245000C1F90028DFDB029908F1010801EB8101D5
:1024600000EB41000290B969089888470A21FFF7FC
:10247000B1F9099AA9F10109B9F1000FC2F8008078
:1024800001DD0028E7DAF96908988847049902987D
:1024900000FB016655EA040004D004F04041090045
:1024A00002D006E0039898E0A40044EA9574AD00D9
:1024B000B61E04F00041080002D16D196441761E79
:1024C000159810F0240F03D04FF00B095C4803E07F
:1024D0004FF028096FF07D008246564507DAAAEBD7
:1024E00006018944B9F1410F01DD4FF04109012096
:1024F0000021A9F10102FFF739FE024628400B46F0
:102500002140084301D0012100E00021501E02912A
:1025100043F1FF3128402140084301D0012000E071
:1025200000200299834651EA0B014FD00021084652
:102530004FF00000039900F4400039B100EB800037
:102540004FF4400100EBD07001EA600080150128D3
:1025500002DD4FF0FF3000E013D0401C36D002986F
:1025600060B3BBF1000F0CD14A4601200021FFF7F8
:10257000FDFD28402140084301D0012000E000205B
:10258000E0B101204A460021FFF7F0FD0346401963
:102590000A4661412D1A8C4111D3B9F1400F09DD72
:1025A000159810F0240F02D0AAF1340603E0AAF126
:1025B000170600E0761C00254FF0004406E05B1E85
:1025C00042F1FF3220EA030521EA0204CAF10100C8
:1025D000B04206DA1B49039808430190002000909E
:1025E0000EE0039AC4F3D321E80A0A43164940EAED
:1025F00044500A433146CDE90002684601F022FC0E
:10260000159810F0240F0BD01598C00715D1386815
:10261000DDE90012031D3B600068C0E900120CE018
:1026200002A8694601F0A8FB1598C00705D13868D3
:10263000029A011D3960006802604046F0E6000021
:1026400002FCFFFF0000F07F0000F03F2DE9FF4F8C
:1026500092461D4685B04FF00041DDE9124BDDE9A1
:1026600014727F1E01EA4B50414940F0FF4940EA95
:102670000108002122F020004928049102D04E28B0
:1026800028D04CE03BA0012607C88DE80700A969C7
:102690000698641C88477F1E014606D41DF8060074
:1026A00018B121F0200181420BD0E96906988847D2
:1026B000032E34D0082E32D06FF0010009B0BDE8EF
:1026C000F08F761C032E01D0082EE0D1601CCAF8D2
:1026D0000000DCE7A9690698641C88477F1E2AD49D
:1026E00020F02000412826D1A9690698641C88475B
:1026F0007F1E20D420F020004E281CD1A969069806
:10270000641C88477F1E48F4002849F48009CAF8F1
:10271000004001D4282806D0E969069888475FEA76
:10272000CB7012D022E0A9690698641C88477F1EEE
:1027300001D4002803DAE96906988847BCE729280C
:10274000F1D1641CCAF80040E9E71BF0240F07D060
:1027500028680499031D2B600068C0E9001805E093
:102760002868021D2A600068C0F800902046A5E78E
:102770000000F07F494E46494E4954590000000080
:102780004FF0013C50F8042B51F8043B9A4221D100
:10279000A2EB0C03934313EACC1317D150F8042B8C
:1027A00051F8043B9A4215D1A2EB0C03934313EA70
:1027B000CC130BD150F8042B51F8043B9A4209D1A9
:1027C000A2EB0C03934313EACC13DBD04FF00000D1
:1027D000704700BFD01A01BAB1FA81F101F01801B7
:1027E00022FA01F0CB40DBB2C0B2C01AC1F1200125
:1027F0002CFA01F3D11A914311EAC311E6D17047C3
:1028000001491820ABBEFEE7260002007047000019
:1028100041F21C01C4F20201086840F40030086073
:1028200041F21801C4F20201086840F0FC0008609F
:1028300040F60001C4F2010148F64430C4F24440BD
:10284000086040F60C01C4F20101086840F008007D
:10285000086044F20C41C4F2000142F20C0008800E
:1028600044F20841C4F2000140F6A66008807047B7
:1028700041F21C01C4F20201086840F00200086045
:1028800040F22841C4F2000140F2CF20088040F21B
:102890002C41C4F200016320088040F20041C4F2E0
:1028A000000101200880704788B007900691002041
:1028B0000590049003900290019000900698C078D3
:1028C00000F00F0005900698C078C006002806D5D5
:1028D000FFE706988178059808430590FFE706987A
:1028E000007800284BD0FFE707980068019000208F
:1028F0000390FFE7039807283DD8FFE703990120DD
:102900008840029006980088029908400490049834
:10291000029988422AD1FFE7039880000290029929
:102920000F208840009000990198884301900598F5
:10293000029900FA01F10198084301900698C078C5
:10294000282806D1FFE703990120884007994861AC
:102950000BE00698C078482806D1FFE703990120CC
:10296000884007990861FFE7FFE7FFE7FFE7039863
:1029700001300390BEE7019807990860FFE70698C9
:102980000088B0F5807F50DBFFE707984068019032
:1029900000200390FFE70398072842D8FFE7039839
:1029A00000F10801012088400290069800880299F1
:1029B000084004900498029988422DD1FFE70398BB
:1029C0008000029002990F208840009000990198A1
:1029D000884301900598029900FA01F10198084393
:1029E00001900698C078282808D1FFE7039800F1E5
:1029F00008010120884007994861FFE70698C078E0
:102A0000482808D1FFE7039800F108010120884019
:102A100007990861FFE7FFE7FFE70398013003909C
:102A2000B9E7019807994860FFE708B070470000D0
:102A300086B005908DF8131000200390029001904D
:102A400000909DF817000006002806D5FFE71C201F
:102A5000C4F201000068019005E00420C4F2010006
:102A600000680190FFE70598C0F303400090BDF8AF
:102A700014000390059800F44010B0F5401F0CD1ED
:102A8000FFE7019820F0706001900421C4F2010179
:102A9000086820F07060086023E09DF81600C0060A
:102AA00000280DD5FFE70099032088400290029985
:102AB000019888430190019840F0706001900FE008
:102AC0000398059A6FF00F0101EA524100FA01F1F3
:102AD000019888430190019840F070600190FFE7F1
:102AE000FFE79DF8130060B1FFE70398059A6FF0C8
:102AF0000F0101EA524100FA01F1019808430190E7
:102B0000FFE79DF817000006002806D5FFE70198AB
:102B10001C21C4F20101086005E001980421C4F2FF
:102B200001010860FFE706B07047000084B0039021
:102B30000020029001900F2000900398C078B8B355
:102B4000FFE74EF60C50CEF200000068C043C0F321
:102B5000022002900298C0F10400019000980299AE
:102B6000C8400090039840780199884002900398EB
:102B70008078009901400298084302900298000171
:102B800002900298039909784EF20042CEF20002B8
:102B900088540398027802F01F01012088401C210C
:102BA00001EAD2014EF20012CEF2000288500EE08D
:102BB0000398027802F01F01012088401C2101EADD
:102BC000D2014EF28012CEF200028850FFE704B02C
:102BD0007047000081B0009000980021C0F2FA51C7
:102BE00008434EF60C51CEF20001086001B0704768
:102BF00082B001908DF803109DF8030048B1FFE703
:102C0000019A41F21801C4F20201086810430860F9
:102C100008E0019A41F21801C4F2020108689043E9
:102C20000860FFE702B0704786B00590002004906E
:102C300003900290019041F20400C4F20200006887
:102C400000F00C0004900498009040B1FFE7009859
:102C500004280BD0FFE7009808280ED047E005991C
:102C600041F20020C0F27A00086047E0059941F285
:102C70000020C0F27A00086040E041F20400C4F293
:102C80000200016801F470110391006800F48030C3
:102C900002900399022000EB91400390029848B9FA
:102CA000FFE7039840F60011C0F23D014843059943
:102CB00008601BE041F20400C4F2020000688003D7
:102CC000002809D5FFE7039840F60011C0F23D0146
:102CD00048430599086008E0039841F20021C0F2DA
:102CE0007A01484305990860FFE7FFE706E0059988
:102CF00041F20020C0F27A000860FFE741F20400D0
:102D0000C4F20200016801F0F0010491049909097C
:102D10000491049A44F22441C0F600018A5C0192B5
:102D2000059B1A68DDF804C022FA0CF25A600268AA
:102D300002F4E0620492049A120A0492049A8A5CF1
:102D40000192059B5A68DDF804C022FA0CF29A60E1
:102D5000026802F460520492049AD20A0492049A1D
:102D6000895C0191059A5168019BD940D160006846
:102D700000F4404004900498800B0490049944F2BD
:102D80002040C0F60000405C01900599C868019A97
:102D9000B0FBF2F0086106B07047000080B500F0AB
:102DA00001F880BD84B000200390029041F2000140
:102DB000C4F20201086840F480300860FFE741F285
:102DC0000000C4F20200006800F400300290039892
:102DD00001300390FFE702990020019039B9FFE725
:102DE0000398B0F5A06018BF01200190FFE701989B
:102DF000C0070028E3D1FFE741F20000C4F202005F
:102E000000688003002803D5FFE70120029002E05C
:102E100000200290FFE70298012851D1FFE742F21B
:102E20000001C4F20201086840F010000860086860
:102E300020F007000860086840F00200086041F2D6
:102E40000401C4F202010091086808600868086083
:102E5000086840F480600860086820F47C1008600E
:102E6000086840F4E810086041F20001C4F2020171
:102E7000086840F080700860FFE741F20000C4F28B
:102E8000020000688001002801D4FFE7F5E741F265
:102E90000401C4F20201086820F003000860086819
:102EA00040F002000860FFE741F20400C4F20200B3
:102EB000006800F00C00082801D0FFE7F4E700E00C
:102EC000FFE704B07047000041F20401C4F20201C0
:102ED000086840F4E0100860086820F4800008608A
:102EE00041F20001C4F20201086840F48030086039
:102EF000FFE741F20000C4F20200006880030028EE
:102F000001D4FFE7F5E741F20401C4F202010868C9
:102F100040F48030086041F20001C4F20201086808
:102F200040F080700860FFE741F20000C4F2020048
:102F300000688001002801D4FFE7F5E742F20001B4
:102F4000C4F20201086840F01100086041F2040177
:102F5000C4F20201086820F003000860086840F02D
:102F600002000860FFE741F20400C4F202000068BA
:102F700000F00C00082801D0FFE7F4E741F204015B
:102F8000C4F2020108680860086840F480600860C4
:102F900008680860086840F4004008600421C4F232
:102FA000010108680860704780B541F20002C4F270
:102FB0000202106840F00100106041F20401C4F206
:102FC000020108680023CFF6FF031840086010686C
:102FD0004FF6FF73CFF6F66318401060106820F4C8
:102FE00080201060086820F4FE00086041F20801AB
:102FF000C4F202014FF41F000860FFF7CFFE4EF647
:103000000851CEF200014FF00060086080BD000062
:1030100080B500F005F800F045F800F02BF880BD11
:1030200080B586B0092001210491FFF7E1FD402021
:10303000ADF8140018208DF8170003208DF8160045
:1030400040F60040C4F20100019005A90291FFF78B
:103050002BFC019802998022ADF8142004220392DF
:103060008DF81720FFF720FC03980499FFF7E0FC88
:1030700006B080BD80B582B04FF4E060FFF7AAFDD6
:1030800025208DF8040000208DF8050002208DF821
:10309000060001208DF8070001A8FFF747FD02B0E8
:1030A00080BD000080B586B04FF4804001210191C1
:1030B000FFF79EFD4FF4E13002900020ADF80C00C8
:1030C000ADF80E00ADF81000ADF814000C20ADF80E
:1030D000120043F60000C4F20100009002A900F0C3
:1030E000CDF80098019A40F2255100F07DF8009843
:1030F000019900F041F806B080BD000080B5FFE7FF
:1031000043F60000C4F20100202100F04BF808B99A
:10311000FFE7F5E743F60400C4F20100028840F23D
:103120007E01C2F200010B7840F26000C2F20000A2
:10313000C2540978405C232814D1FFE740F27E0195
:10314000C2F20001087840F26002C2F200020244BA
:1031500000205070087040F28001C2F2000101208E
:10316000086007E040F27E01C2F2000108780130F9
:103170000870FFE780BD000082B001908DF8031059
:103180009DF8030030B1FFE70199888940F40050B1
:10319000888105E00199888920F400508881FFE743
:1031A00002B0704782B00190ADF8021000208DF897
:1031B0000100BDF80200B0F5007F01D1FFE7FFE795
:1031C00001980088BDF802100840000420B1FFE714
:1031D00001208DF8010003E000208DF80100FFE7D9
:1031E0009DF8010002B0704786B00590ADF812104E
:1031F0008DF8112000200390029001900090BDF8FE
:10320000120040F66A11884201D1FFE7FFE70598F6
:1032100000909DF8120040090390BDF8120000F0E4
:103220001F00029002990120884001900398012814
:1032300004D1FFE700980C3000900CE003980228BE
:1032400004D1FFE700981030009003E0009814309C
:103250000090FFE7FFE79DF8110030B1FFE7019A0A
:10326000009908681043086005E0019A0099086811
:1032700090430860FFE706B07047000080B58CB04F
:103280000B900A91002009900890079006900590F5
:103290000A98808908B1FFE7FFE70B9805900B9823
:1032A000008A099009984CF6FF71084009900A9825
:1032B000C18809980843099009980B9908820B98CE
:1032C0008089099009984EF6F311084009900A99EF
:1032D00088880A891043498901430998084309905D
:1032E00009980B9988810B98808A099009984FF664
:1032F000FF41084009900A9881890998084309907C
:1033000009980B9988826846FFF78EFC059843F66A
:103310000001C4F20101884203D1FFE7039808903D
:1033200002E002980890FFE70B98808900040028CB
:103330000AD5FFE70898192148430A990968490006
:10334000B0FBF1F0079009E00898192148430A9969
:1033500009688900B0FBF1F00790FFE7079848F291
:103360001F51C5F2EB11A0FB01016FF00F0000EA45
:1033700051000990079A09980009642100FB112067
:1033800006900B9880890004002810D5FFE7069965
:10339000322000EBC10048F21F51C5F2EB11A0FB37
:1033A0000110C0F342110998084309900FE00699F3
:1033B000322000EB011048F21F51C5F2EB11A0FBC7
:1033C0000110C0F34311099808430990FFE70998D9
:1033D0000B9908810CB080BD80B5ADF5087D00204B
:1033E0008790FFF771FDFFF743FAFFF711FEFFF734
:1033F0000FFAFFE740F28000C2F2000000680128E7
:1034000040D1FFE744F26441C0F6000140F260029F
:10341000C2F2000207A80190FCF734FF019844F2C1
:103420003441C0F6000103AAFCF742FF18B3FFE7DE
:1034300000200290039A44F24041C0F600010DF1D1
:103440001200FCF71FFFFFE702990DF11200405C2C
:1034500050B1FFE702990DF11200405C00F014F842
:10346000029801300290EFE70A2000F00DF80D20DD
:1034700000F00AF8FFE740F28001C2F200010020EC
:103480000860FFE7B6E7000081B08DF803009DF803
:10349000030044F20441C4F200010880FFE744F253
:1034A0000040C4F2000000884006002801D4FFE775
:1034B000F5E744F20041C4F20001088820F0400022
:1034C000088001B070475FEA400C08BF91F0000F20
:1034D0004FEA8C234FEAC12243EA51514FEA1C5074
:1034E00018BF00F5F0404FEA300018BF41F000412E
:1034F0005FEA6C5C00F02980BCF1FF3F08BF40F040
:1035000080407047130C06BF12044FF0100C4FF0B0
:10351000000C130E04BF12020CF1080C130F04BFB1
:1035200012010CF1040C930F04BF92000CF1020C79
:10353000D30F04BF52000CF1010C11464FF00002F2
:10354000A0F11F00A0EB0C00704711F0004F08BF66
:10355000704731F000413FF4D5AF0B0C06BF0904B2
:103560004FF0100C4FF0000C0B0E04BF09020CF1D1
:10357000080C0B0F04BF09010CF1040C8B0F04BFE6
:1035800089000CF1020CCB0F04BF49000CF1010CB7
:10359000CCF1200322FA03F341EA030102FA0CF210
:1035A000A0EB0C0000F101007047000023F07F4702
:1035B00020F07F4C80EA030000F00040ACEB0703F2
:1035C00003F57C5303F1FF032DE9804909B44FEA69
:1035D000144324EA03484FEA154B25EA0B4E0FF239
:1035E000042606EB13273E7803FB0667C7F50007A2
:1035F00007FB06F64FEAD64606F102064FEA5437B5
:1036000007FB066CCCF1005C4FEA1C472CEA074C28
:103610000CFB06F507FB06F404EB15464FEA96167D
:1036200049085FEA320234BF00204FF000404FEA01
:10363000D13706FB07FC4FEA1C4C0CFB0BF7D21BE7
:1036400003FB0CF761EB07010CFB0EF7B0EB074037
:1036500072EB17420CFB08F734BFA2EB0742B2EB48
:10366000074261EB17414FEA0C444FEA910706FB12
:1036700007FC4FEA1C4C0CFB0BF7B0EBC74072EB9E
:10368000573203FB0CF734BFA2EBC742B2EBC74281
:1036900061EB57310CFB0EF7B0EBC70072EB5772C2
:1036A0000CFB08F734BFA2EBC702B2EBC70261EB19
:1036B00057714FEA816141EA92114FEA826242EA10
:1036C00090124FEA806004EBCC04039F4FEAD1379D
:1036D00006FB07FC4FEA1C4C0CFB0BF7D21B03FB51
:1036E0000CF761EB07010CFB0EF7B0EB074072EB38
:1036F00017420CFB08F734BFA2EB0742B2EB0742BC
:1037000061EB17414FEA8C5504EB9C244FEA91077B
:1037100006FB07FC4FEA1C4C0CFB0BF7B0EBC74059
:1037200072EB573203FB0CF734BFA2EBC742B2EB8C
:10373000C74261EB57310CFB0EF7B0EBC70072EBE1
:1037400057720CFB08F734BFA2EBC702B2EBC702FB
:1037500061EB57714FEA816141EA92114FEA82624F
:1037600042EA90124FEA806015EB4C2544F10004C8
:103770004FEAD13706FB07FC4FEA1C4C0CFB0BF75A
:10378000D21B03FB0CF761EB07010CFB0EF7B0EB50
:10379000074072EB17420CFB08F734BFA2EB07425D
:1037A000B2EB074261EB17414FEA813141EA9241A6
:1037B0004FEA823242EA90424FEA80304FEA0C767A
:1037C00015EB1C1544F1000448EA03434EEA0B488C
:1037D0004FF0000EB2EB080C71EB030724BF6246FA
:1037E00039464EEB0E0E4FF0000B00185241494186
:1037F0004BEB0B0BB2EB080C71EB03077BF1000BEF
:1038000024BF624639464EEB0E0E4FF0000B0018F7
:10381000524149414BEB0B0BB2EB080C71EB030728
:103820007BF1000B24BF624639464EEB0E0E51EA87
:10383000020718BF46F0010616EB0E7655F100029E
:1038400054F1000103D5BDE88901BDE80088BDE859
:103850008901BDE80048B619524141EB0101A3F1CD
:103860000103704780807F7E7D7C7B7A79787776D4
:1038700076757473727171706F6E6E6D6C6C6B6A4D
:103880006A696868676666656464636362616160EB
:10389000605F5F5E5E5D5D5C5C5B5B5A5A59595868
:1038A00058575756565555555454535352525251D2
:1038B000515050504F4F4F4E4E4D4D4D4C4C4C4B28
:1038C0004B4B4A4A4A49494948484847474747466F
:1038D00046464545454444444443434343424242AB
:1038E0004241414110B546EA06464FEA164646EACD
:1038F00042564FEAD22242EA41524FEAD121A3F581
:103900007053A3F1010300F02FF820F0004000F005
:10391000004700F1020CBCF5006F01EB00501146AE
:1039200040EA070000D210BDBAF1000F0AD01CB562
:1039300003B44FF004004FF004014FF000000FBC3F
:10394000BDE810404FF00001BBF1010FB9BF0448C2
:103950004FF0FF310348002140EA070010BD00BFCF
:10396000FFFFEF7F0000F07F9C46002B30D47700F4
:103970002BD04FEA37071CB503B44FF010004FF0BF
:103980001001BAF1000F06D0BCF1000FDCBF40F00F
:10399000080040F008014FF000000FBCBDE81040E7
:1039A0000BF1010BBBF1010F08BF5FEA170722BF44
:1039B00012F1010211F101014FF0004143F1000346
:1039C00000F0004043EA00007047F9D35708D0E701
:1039D00046EA06464FEA164613F1400F1FDD13F183
:1039E000200FDFBF16430A46002120335B42BED0C2
:1039F000C3F1200746EA06464FEA164602FA07F7E1
:103A000046EA070622FA03F2C3F1200701FA07F794
:103A100042EA070221FA03F14FF00003A7E746EA62
:103A2000020646EA06464FEA164646EA0106BCBFCB
:103A300046EA0646360C4FF000034FF000024FF006
:103A4000000194E72DE9804C70B49A46934691E8C2
:103A5000380007C831EA400C48BF34EA430C03D5AC
:103A6000FFF7A4FDFFF780FFF0BCBDE8008C2DE957
:103A7000804C70B49A46934691E8380007C831EA02
:103A8000400C48BF34EA430C03D5FFF78FFDFFF726
:103A900029FFF0BCBDE8008C2DE9804C70B49A463B
:103AA000934691E8380007C810F0804F08BF13F024
:103AB000804F03D100F01AF8FFF756FFF0BCBDE8C5
:103AC000008C2DE9804C70B49A46934691E83800FA
:103AD00007C810F0804F08BF13F0804F03D100F0EB
:103AE00005F8FFF7FFFEF0BCBDE8008C20F07F4733
:103AF00023F07F4C80EA030000F0004007EB0C034A
:103B0000A3F57C53A3F1FE0392F0000F00F0B38005
:103B100095F0000F00F077802DE901494FEA114040
:103B200021EA00484FEA144624EA064700FB06FC57
:103B300008FB06F607FB08F818EB06484CEB164C9A
:103B400000FB07F718EB07484CEB17404FEA124B06
:103B500022EA0B4E4FEA154625EA06470BFB06FC08
:103B60000EFB06F607FB0EFE1EEB064E4CEB164C4C
:103B70000BFB07F71EEB074E4CEB174B18EB0B0834
:103B800040F1000018EB0E0B58EB000840F100006C
:103B90008F1A4FF000014FF000063CBFC943661B6F
:103BA00014BFB5EB040C00213CBFC943F61B4FEA20
:103BB000174427EA04454FEA1C472CEA074C04FB4C
:103BC000076205FB07F70CFB05F616EB074642EB11
:103BD000174204FB0CFC16EB0C4642EB1C421BEBA1
:103BE000060658EB020241414EEA8E0E46EA9E0658
:103BF00001D5BDE80189B619524141EB0101A3F19C
:103C00000103BDE801894FEA144524EA05464FEA5D
:103C1000114721EA074C05FB07F406FB07F70CFBED
:103C200006F111EB074144EB174405FB0CFC11EBCB
:103C30000C4144EB1C444FEA124722EA074C05FBB7
:103C400007F206FB07F70CFB06F616EB074642EBFE
:103C5000174205FB0CFC16EB0C4642EB1C456A18A0
:103C600054F1000148BF7047B619524141EB0101C0
:103C7000A3F10103704795F0000F37D04FEA1142CE
:103C800021EA02464FEA144724EA074C02FB07F1F7
:103C900006FB07F70CFB06F414EB074441EB174156
:103CA00002FB0CFC14EB0C4441EB1C414FEA1547A2
:103CB00025EA074C02FB07F506FB07F70CFB06F6A7
:103CC00016EB074645EB174502FB0CFC16EB0C46C2
:103CD00045EB1C42121951F1000148BF7047B6195B
:103CE000524141EB0101A3F1010370474FEA144532
:103CF00024EA05464FEA114721EA074C05FB07F184
:103D000006FB07F70CFB06F212EB074241EB1741EB
:103D100005FB0CFC12EB0C4251EB1C414FF0000672
:103D200048BF7047921841EB0101A3F101037047AE
:103D3000490050EAC12018BF04204A0D18BF40F0C6
:103D4000010040F2FF72B2EB515F08BF40F0020089
:103D5000012808BF0520704740F2013200204FF0D3
:103D6000E04100F093BA0000024A0020110700F081
:103D70008DBA000001FDFFFF10B50446D1E9000136
:103D800000F002F8206010BDF8B504460D466A4602
:103D900000F06AF800987E30009000281EDC0022B7
:103DA00013462046294600F037F917D0002140F687
:103DB00008004FF0000006462046294600F0E6F8CD
:103DC000044640F6080006EA00014FF0000034F017
:103DD000004004BF0220FEF7A2FA29E00098FF2865
:103DE00028DB002108464FF0000000F440060022C6
:103DF00013462046294600F0D5F98CBF0025012541
:103E00000220FEF78CFA4FF0FF4446B1002D0CBFA4
:103E10004FF400004FF48000B04218BF084C04215A
:103E200008464FF00000002D04BF84F00040F8BDAC
:103E30002046F8BD20462946BDE8F84000F0A6B867
:103E4000FFFF7F7F10B504460A46D4E900031946F8
:103E500000F036F8C4E9000110BD30380A2801D25C
:103E6000012070470020704710B5144600222260E0
:103E7000114A21F000439342A8BF10BD53EA00024B
:103E800008BF10BDB3F5801FA8BF226807DA36222D
:103E900000F0FCF96FF0350221F000432260DFF8FA
:103EA0001CC06FF31E510CEB23531A4441F0FF5119
:103EB00041F00051226010BD0000F07F02FCFFFFC6
:103EC0002DE9F04106460C4640F2FF75174635EAEB
:103ED00014502BD000221346304600F09DF825D018
:103EE0003A463046214600F0D1F906460C4635EAFE
:103EF000145010D000221346304600F08DF815D132
:103F00000220FEF70CFAFFF72FFF0A46214662F364
:103F10001E01BDE8F0810220FEF701FAFFF71CFF49
:103F20000A46214662F31E01BDE8F0813046214673
:103F3000BDE8F08110B500290AD00878002807D024
:103F400005487844FEF71CFC002801D0002010BD75
:103F50000248784410BD0000460500003E05000000
:103F600010B500290AD00878002807D00548784401
:103F7000FEF706FC002801D0002010BD024878445E
:103F800010BD0000360500002E05000021F00042A3
:103F900001F00043A2F16052B2F5801F28BFD2F1B8
:103FA0007F6C0BD95FEA001C43EAC20242EB5070FF
:103FB00018BF704728BF20F001007047B2F5801F7E
:103FC000BCBF184670474FEA410C1CF5001F02D2D7
:103FD000084600F01DB970B500F096F800000089A1
:103FE000FFF7F6BF4FF00040A0F5800070470000DB
:103FF00002494FF0000000F017B900BF0000F87F41
:10400000491058BFC1F140415B1058BFC3F1404354
:104010008B42EFF30080704751EA030C17D41CF574
:10402000801F58BFBCF5801F00F10680994218BF61
:10403000704708BF9042704707D711F5801F58BFDF
:1040400013F5801F19D499427047894270471CF5B7
:10405000801F08D5BCF5801FF7D58B4218BF70476D
:1040600008BF824270474FF4001C1CEB410F38BF61
:104070001CEB430F01D28B42704770B500F044F83F
:10408000922449004FF000514FF08053FFF7B8BF22
:1040900051EA030C17D41CF5801F58BFBCF5801FD4
:1040A00000F10680994218BF704708BF90427047E0
:1040B00007D711F5801F58BF13F5801F19D49942F7
:1040C0007047894270471CF5801F08D5BCF5801FDA
:1040D000F7D58B4218BF704708BF824270474FF434
:1040E000001C1CEB410F38BF1CEB430F01D28B426D
:1040F000704770B500F008F8922449004FF0005165
:104100004FF08053FFF77CBF0EF1020E2EF0030E2E
:104110005EF8046B364205D4012A43EB030515F51E
:10412000001F12D8012841EB010C1CF5001F0CD810
:104130000ED14FEAD17C0CEB4C0C0CF1020C15F5B6
:10414000001F08BF4CEBD37C04E04FF0080C01E0EB
:104150004FEAD37C0CEB4C0526FA05F606F0070671
:10416000B6F1040C06D20EEB860CBDE870404CF0A4
:10417000010C6047DFE80CF0090B02024FF0004130
:10418000A1F500214FF0000070BD1946104601282E
:1041900051EB010418BFD4F5001484BF002001F0D6
:1041A000004170BD53EA010C17D41CF5801F58BFA5
:1041B000BCF5801F00F106808B4218BF704708BF16
:1041C0008242704707D713F5801F58BF11F5801F33
:1041D00019D48B4270479B4270471CF5801F08D54D
:1041E000BCF5801FF7D5994218BF704708BF9042B1
:1041F00070474FF4001C1CEB430F38BF1CEB410F02
:1042000001D2994270470FB40CBC03BCFFF771BFD9
:10421000FF2141EAD050C00570474FF000007047C1
:10422000FCF7F7BFFDF72CB90CF00F03092B08BF03
:10423000082000F05F800A2B0BD0082B18BF7047B6
:1042400008BF1CF0400F0AD04FF000004FF00001F3
:1042500070471CF0400F18BF4FF0004070471CF033
:10426000100F08D000F07F4220F0704342EAD301E3
:104270004FEA4370704700F0604021F07F4242EA0D
:10428000000201F07F4040EA727070474FF0FF0C6F
:104290004CF4E06C1CEA11531CBF9CEA030C9445DF
:1042A000C2BFDA4201EB02517047002B0DD0BCF1C6
:1042B000000F0FD001F00041002AA4BF41F0E041FF
:1042C00041F07F614FF00000704701F000414FF076
:1042D0000000704750EA01334FF09B0C18BF4CF0C0
:1042E000806C7FF485AE7047FDF762BDFEF71EB8A7
:1042F000FEF7ACB91CF4801F11D01CF4E02F03D0E2
:104300006FEACC31490070474FF04050EFF3008224
:1043100022F0704242EA000282F3008870474FF0B8
:104320000000704700000000000000003031323310
:1043300034353637383941424344454640305800D9
:10434000303132333435363738396162636465660B
:104350004030780004000008000000000000000267
:1043600000010000103031323334353637383961CE
:1043700062636465667870003031323334353637C5
:10438000383941424344454658500000024000003D
:10439000000000A00000000005400000000000C870
:1043A000000000000C4000000000409C00000000E5
:1043B000194000000020BCBE000000003440000096
:1043C000BFC91B8E00000004B5400000504BCFD089
:1043D0006607E2CF010000006C4100003E8251AA56
:1043E000DFEEA73401000000D9420000DCB5A0E2F6
:1043F0003A301F97FFFFFFFFB4450000FD25A0C81E
:10440000E9A3C14FFFFFFFFFFF3F00000000008056
:1044100000000000FF3F00000000008000000000DE
:104420000204060800000000010203040102030464
:10443000060708090A70697463683A202564230036
:1044400067696120747269206461746120746163BA
:1044500068206B686F69206368756F69206C613ACA
:104460002025640025730000B445000800000020EA
:104470008806000054010008000000000000F07FE2
:10448000FFFFFFFFFFFFEF7F1C0000004300000065
:10449000F8FFFFFF0C0000000E0000000F000000FE
:1044A0002E0000001001000043000000F8FFFFFF95
:1044B0000040404040404040404041414141414037
:1044C00040404040404040404040404040404040EC
:1044D000400502020202020202020202020202027B
:1044E0000220202020202020202020020202020280
:1044F00002029090909090901010101010101010D8
:1045000010101010101010101010101002020202E3
:104510000202888888888888080808080808080827
:104520000808080808080808080808080202020223
:10453000400000000000000000000000000000003B
:10454000000000000000000000000000000000006B
:10455000000000000000000000000000000000005B
:10456000000000000000000000000000000000004B
:10457000000000000000000000000000000000003B
:10458000000000000000000000000000000000002B
:10459000000000000000000000000000000000001B
:1045A000000000000000000000000000000000000B
:0445B0000000000007
:0400000508000245A8
:00000001FF
